:03004300021200A6
:1012000002000E00021A0E000219FB000219E6008D
:101210000219B6000200320002003A000200420049
:1012200002004A000211FF00021A7100021A720045
:10123000021A7300021A7400021A7500021A76006C
:10124000021A7700021A7800021A7900021A7A004C
:08125000021A7B00021A7C0067
:100B2A001201100100000040E10F01000000010263
:100B3A00000109027800020103C07D0904000000D7
:100B4A000101000009240100010900010109040151
:100B5A0000020103000207240100015400062402D6
:100B6A000101000624020202000924030103010212
:100B7A0001000924030204010101000924030105FB
:100B8A00010201000924030206010101000905020C
:100B9A00024000000000052501010109058202400A
:100BAA0000000000062501020305040309041403DA
:100BBA005700610076006500200049006400650066
:100BCA0061001A0342006900740073007400720025
:0E0BDA00650061006D0020003300580000002F
:100F0100907FECE0F45480C4540FFFE054072F2588
:100F1100E024B4F582E4347FF58322F0E52B24014B
:100F2100F52BE4352AF52AE43529F529E43528F5A8
:100F31002822AF2FAE2EAD2DAC2CAB2BAA2AA9297E
:100F4100A828C3020EF0AA06A9077B018B5E8A5F5F
:100F51008960EA494B22E531252BF582E530352AB6
:0E0F6100F58322907F00F0E4A3F0907FB5228C
:10080D00C228C225C227C226907FA1E04401F090E4
:10081D007F92E054FDF01218E7E4F5237E0B7F2A5A
:10082D008E088F09750A0B750B3C750C0B750DB485
:10083D00EE54E070030208C97530007531808E32B8
:10084D008F33C374E69FFF740B9ECF2402CF340009
:10085D00FEE48F2F8E2EF52DF52CF52BF52AF5298F
:10086D00F528120F33500A120F5774CD120F1C803A
:10087D00F1E4F52BF52AF529F528120F335017E57C
:10088D0033252BF582E532352AF583E0FF120F571C
:10089D00EF120F1C80E4853008853109742A2480FD
:1008AD00FF740B34FFFEC3E50B9FF50BE50A9EF5B8
:1008BD000AC3E50D9FF50DE50C9EF50CD2E843D866
:1008CD0020907FAB74FFF0907FAFE04401F0907FFC
:1008DD00AEE0441DF0D2AF538EF81214B6907F9A4D
:1008ED00E030E40EE030E50A907F9BE030E4031247
:1008FD000BE8907F94E0440CF0758DFC758BFCD269
:10090D008C1214F612189D12177A1214B67B017AF6
:10091D00207900A2039220120F6F121165120A5353
:10092D00301C03120BE8301E10120C9A7B017A2139
:0E093D007905A2029220120F6F12177A80C65F
:10008B00907FE9E070030201F3147003020239243C
:10009B00FE700302028624FB70030201ED14700351
:1000AB000201E71470030201DB1470030201E12467
:1000BB000560030202B412004040030202C0907FAD
:1000CB00EBE024FE601414602E240260030201D8BE
:1000DB00E508907FD4F0E5098013907FEAE0FF12EA
:1000EB0011B9120F47600DEE907FD4F0EF907FD5D2
:1000FB00F00202C00202B9907FEAE0FF1217A712CA
:10010B000F4770030201D5AB5E8B658A6689671258
:10011B000E76F568907FEEE0FFE568D39F4003E035
:10012B00F568E56870030201CAE4F564F563F562EE
:10013B00F561E568C394405004AF6880027F40E4EA
:10014B00FCFDFEAB64AA63A962A861C3120EF0505A
:10015B0032E5672564F582E5663563F583E0FF7468
:10016B00002564F582E4347FF583EFF0E564240128
:10017B00F564E43563F563E43562F562E43561F506
:10018B006180AFE568C394405004AF6880027F4044
:10019B00907FB5EFF0E568C394405004AF688002E0
:1001AB007F40C3E5689FF56874402567F567E435C4
:1001BB0066F566907FB4E020E20302012D80F4E443
:1001CB00907FB5F0907FB40202300202B90202B9FF
:1001DB00121A650202C01200030202C0121A440274
:1001EB0002C0121A5F0202C012004640030202C094
:1001FB00907FE8E0247F60181460212402702CA209
:10020B0025E43325E0FFA227E4334F120F6480155A
:10021B00E4907F00F0A3F0907FB58009120F01E00E
:10022B005401120F647402F00202C00202B91200F0
:10023B004840030202C0907FE8E024FE60132402D2
:10024B007073907FEAE0B40105C2250202C002027E
:10025B00B9907FEAE07022120F01E4F0907FECE09E
:10026B005480131313541FFFE054072F907FD7F0C4
:10027B00E4F565E04420F0803C80331211FB5035EF
:10028B00907FE8E024FE601124027029907FEAE061
:10029B00B40104D225801E8015907FEAE07008120D
:1002AB000F017401F0800E80051211FD5007907F35
:0D02BB00B4E04401F0907FB4E04402F02272
:0300330002003692
:0400360053D8EF327A
:1010A500E4F576C229C22BC22AC22CF571F573F577
:1010B50072F574902002F0A3F0902000F0A3F09058
:1010C5002004F078CBF608F608F69021077403F0B3
:1010D500E4A3F0902105F0A3F0902109F078D6F66D
:1010E50008F608F690220CF0A3F090220AF0A3F07F
:1010F50090220EF078C0F608F608F6F522F575F59B
:021105001B22AB
:10171C00E4907F94F0907F95E04403F0907F9C746C
:10172C0020F0907F9D74C9F0907F9E74E2F0E4905D
:0F173C007F96F0907F977408F0E4907F98F022EA
:1014F600907F97E04480F0E04440F0751BFF120AAD
:101506005312189DE52264556004E51B70F0E51B37
:10151600700875200FF521752255E5234420FD7FBF
:0E152600291218C3907F97E054BFF0D21D2207
:10142600157715771577A877C6EBC608C6EAC608F6
:10143600C6E9C61577A877EFF6A87708CBE6CB08F6
:10144600E6FA08E622120ECE900009020E8FF9E4A3
:101456003AFA120E764401020EBCE5772404F577BB
:08146600229020027403F02221
:10110700157715771577A877C6EBC608C6EAC60818
:10111700C6E9C61577A877EFF6E576703D30050B7B
:1011270012143FF9A877E6FF121650A877E6FF12C8
:101137001441F912144EF582758300EF12144B0413
:10114700540790000912144BFF900008120E8F6F7E
:0E115700700812143F240A121454121460225D
:100DE4008F26E526D394F7400C20087B7B007A00FD
:100DF40079C3021107E52630E72CFF1212588F1C25
:100E0400E526B4F0089020027401F0803FE526B492
:100E1400F7051214678035E526C394F0502E12149A
:100E24006785261D8026902002E0FF603AEF640368
:100E3400701A902001E0FF902003E06F700CAF1D4A
:100E44001212588F1CAF1D120E6C151CAF26120EF9
:100E54006CE51C7012902002E064046007A3E0902B
:100E64002001F022121467227B017A2079001210EB
:020E740040221A
:101345008F27E5767039E527C394F84010E527D354
:1013550094FC50097B007A0079B802110790220CA1
:10136500E0700BE527B4FF2290220C7402F0E5270C
:10137500B4FE0C90220DE00490220BF0E4A3F07B68
:0B138500017A22790AAF2712104022E3
:101258001577A877EFF6A877E6FFC39480401AEFD2
:10126800D394EF5014EFC394C0400AEFD394DF50E7
:10127800047F0180297F028025A877E6FF64F1605A
:1012880004EFB4F3047F018015A877E6FEB4F204F6
:101298007F02800AEEB4F0047FFF80027F000577AA
:0112A8002223
:10165000121426F9EBC0E08A8389827B007A007934
:10166000B8D0E0700A74B865827004740065837045
:1016700005200E0C8003300E07A877E6FF1215E454
:0416800012146022BE
:10104000121426F9900003120E8F04F518120E7672
:101050006518A877701F1214412404121454121436
:101060003FF99000027404120ECE900001120E8F10
:101070009000038029E6FF121441F9900003120E3C
:101080008FFD7C00E92405F9E43AFAE92DF9EC3A00
:10109000FAEF120EBC12143FF9900003E518120E7D
:0510A000CE12146022D5
:030023000212F9CD
:1012F900C0E0C0F0C083C082C0D075D01030981350
:10130900859919C298301D0BE57564026005AF19FE
:10131900120DE430991BC299E57165726011AF71C4
:101329000571EF543F2478F8E6F599C2298002C285
:0C1339002AD0D0D082D083D0F0D0E03297
:03003B000213901D
:10139000C0E0C0F0C083C082C0D075D01030C00A99
:1013A00085C11AC2C0AF1A12134530C123C2C1E5AC
:1013B0007365746019AF7305737E00EF543F240F9B
:1013C000F582EE3423F583E0F5C1C22B8002C22CF6
:0B13D000D0D0D082D083D0F0D0E0322B
:03000B000213DB02
:1013DB00C0E0C083C082C28CE576701F200A1CE57A
:1013EB000E600AD50E07907F96E054DFF0E50F6094
:1013FB000AD50F07907F98E054DFF0200A0EE51B0B
:10140B00600AD51B07907F97E054BFF0758CF07581
:0B141B008A60D28CD082D083D0E032F7
:10187700740F2534F582E43422F583E0227B007A65
:101887000079B8E539853A83853B82227B017A2244
:06189700790A8536532298
:100F6F008B348A358936120E76F537C2AF90000171
:100F7F00120E8FF538D2AFFD12067D3020423006AB
:100F8F000320043C30003930010EAB34AA35A936AA
:100F9F00853853E4FF1202C8E53765386022AB3459
:100FAF00E5362405F9E43535FA7E00E92537F9EE03
:100FBF003AFA120E76FF121850E53704F53780D83B
:0B0FCF00AB34AA35A936E538020EBC91
:100A530090220AE0F534C2AFA3E0F536D2AF14F525
:100A630035E53465367003020B23121877B4FFF1B2
:100A7300740F253512187BB4FEE7AF347E00EF24E4
:100A830001FD7C00740F2DF582EC3422F583E0F533
:100A9300375460F538702DEF2402FF7E00740F2F5A
:100AA300F582EE3422F583E0FFE537541F2420F866
:100AB300A607300A07907F97E04440F0E53424040A
:100AC300F534809DE53864207097E53730E338309E
:100AD300E408121893E4FF1202C8E5346536602770
:100AE300121877B4FF06E5342403F534121877FFA0
:100AF300121850E53404F534240F12187BB4FEDACF
:100B0300E53404F53480D312177AE53730E40B303B
:100B1300E2081218937F011202C8853634020A6470
:070B230090220AE534F022E4
:1011650078CDE630E00D7D087F2A1218C378CDE6EC
:1011750054FEF6902004E030E00E7D027F2A12181E
:10118500C3902004E054FEF0301E2878D8E630E005
:101195000D7D047F2A1218C378D8E654FEF69021F7
:1011A50009E030E00E7D017F2A1218C3902109E085
:0411B50054FEF022D2
:10177A00E57670287B007A0079B8D220120D497B71
:10178A00007A0079C3A2039220120D49301E0D7B04
:0D179A00007A0079CEA2029220120D4922A1
:100D49008B398A3A893B900008120E8FF53CAB39F2
:100D5900AA3AA93B900009120E8F653C606F853C49
:100D690082758300120E8FF53D20063A3020373008
:100D79001E1B200111121884700A74B86582700450
:100D8900740065837007AD3DE4FF12192A20001134
:100D9900121884700A74B8658270047400658370CF
:100DA90005AF3D121850121884700A74B865827024
:100DB9000474006583600CE53DC394FE5005AF3DA6
:100DC90012174BE53C045407F53C020D57AB39AA01
:0B0DD9003AA93B900008E53C020ECE5A
:1015E400BFF80B907F96E04420F0750E0322BFFAFB
:1015F40008907F98E04440F022BFFC08907F98E078
:1016040054BFF022BFFB0E907F98E04440F0E044CA
:0616140020F0750F032217
:101A21005391EF907FAB22907F00F0907FB57401CE
:031A3100F0D322CD
:1018E700121A5712171C1210A51216EC907FDE74ED
:1018F70004F0907FDFF0907FDD7409F0E4907FC9FA
:02190700F022CC
:091A4E00907FAFE04408F0D322C0
:02003E00D322CB
:02004000D322C9
:0A1A4400907FEAE0F51FD21BD322C9
:061A5F00E51F121A282207
:08000300907FEAE0F51ED32214
:061A6500E51E121A282202
:02004600D322C3
:02004800D322C1
:0211FB00D322FD
:0211FD00D322FB
:10000E00C0E0C083C082D226121A217401F0D082C1
:05001E00D083D0E032A8
:1019FB00C0E0C083C082121A217404F0D082D0835D
:031A0B00D0E032F6
:101A0E00C0E0C083C082121A217402F0D082D0834B
:031A1E00D0E032E3
:1019B600C0E0C083C082907FC9E4F0121A2174107F
:0819C600F0D082D083D0E032A2
:01003200329B
:1019E600C0E0C083C082D228121A217408F0D082C7
:0519F600D083D0E032B7
:01003A003293
:01004200328B
:01004A003283
:0111FF0032BD
:011A71003242
:011A72003241
:011A73003240
:011A7400323F
:011A7500323E
:011A7600323D
:011A7700323C
:011A7800323B
:011A7900323A
:011A7A003239
:011A7B003238
:011A7C003237
:061A6B00F000204F000115
:1017D300E53B2405F9E4353AFAED2406FF7E00E9FA
:1017E3002FF9EE3AFA020E76AB39E53B2405F9E41C
:0B17F300353AFA22AB39AA3AA93B2292
:1016EC00758921758CF0758A60D2A9C28C758DFEB6
:1016FC00758BFE75884075CBFF75CAE875C8344389
:10170C00878075985043D88075C050D2ACD2AE2229
:101850002029FDC2AF202A06D22A8F998016AE72A7
:101860000572EE543F2478F8A607E5726571543F7F
:071870007002D229D2AF2261
:10067D008D3C8B398A3A893B120E76F53DE53D6509
:10068D003C700302080CC221C2221217EB7E00E956
:10069D00253D1217E4FFC2AF121258EF04F53ED2FA
:1006AD00AF7023853D3F1217EB7E00E9253F1217F2
:1006BD00E464F7600FE53F653C6009053EE53F04E6
:1006CD00F53F80E2053EE4F53F1217EBAD3D7C00B2
:1006DD00ED253F1217DFFFE53F901A6B93B5070B22
:1006ED00E53FC394065004053F80DEE53F64066098
:1006FD0003020790AB391217D330E60302079012AD
:10070D0017EDAD3D7C00ED253EFFEC33CF24FFCF43
:10071D001217E064F7706CE576701D1217D3B41ADA
:10072D00111217EDE53D24071217DFB47F04D21C1B
:10073D008051D221D222804B907F97E04440F0E54A
:10074D0075701C049021056539700AE53B65827052
:10075D0004E53A65837005757502800375750112A0
:10076D0017F71204E3907F97E054BFF01217F7E4E8
:10077D00120EBC1217F7900001120ECE900003E47A
:10078D00020ECE202105300C02D2223022687FFFCE
:10079D0012174B30210EE53D2406F53DE53E24F9BB
:1007AD00F53E80207F021217F774019021056539FF
:1007BD00700AE53B65827004E53A65837003430773
:1007CD002012174BE53D253EF53FE53D653F601693
:1007DD001217EB7E00E9253D1217E4FF12174BE5CA
:1007ED003D04F53D80E4302105E53D04F53D7FFEFA
:1007FD0012174B02068AE53D253EF53D02068A227B
:10174B00202BFDC2AF202C06D22C8FC1801EAE7475
:10175B000574EE7C00543F240FF582EC3423F583A3
:0F176B00EFF0E5746573543F7002D22BD2AF22BA
:1018C300AB077FFF12174BE4FF12174B0F12174B97
:1018D300AF0312174BE4FF12174BAF0512174B7FE1
:0418E300FE02174B9F
:101A34000000020303010203030303030202030180
:1012A900AB50E5522405F9E43551FA7E00E925559C
:1012B900F9EE3AFA020E76AB50E5522405F9E43517
:1012C90051FA2274C02536F582E4347DF583E02293
:1012D900907F97E04440F0751B0A22E550855183C1
:1012E900855282640122F582E4347DF583E0FF2290
:1014B600C220201E15907F99E030E420907FD6E070
:1014C60054F7F0301B16D2208012907F99E020E46A
:1014D6000B907FD6E04408F0C21BD220302010309B
:1014E6001D0DB21EE5767007AD237F291218C322A3
:10192A00907FB8E020E118EFC454F0440F907E0095
:10193A00F0A3EDF0E4A3F0A3F0907FB97404F022D1
:10189D0030260512008BC22630281A121A4E50150A
:1018AD00C228121909202507907FD6E020E7F312F0
:0618BD00198212003E2218
:1002C8008F4F8B508A518952201E030204E2C224A8
:1002D800E4F55DAB50AA51A952120E76F555E555D5
:1002E800655370030204D31212D9E54FC454F0F5D4
:1002F80058E57670262024237B017A22790A121287
:10030800E4700A740A6582700474226583700C12A2
:1003180012A9B4FF06E5552403F555E4F559F55A35
:10032800F55B302474C224E556B4010E7554057586
:1003380059F7E55504F55502045E1212C0AF557E13
:1003480000E92F1212B9F559E556B4020F75540693
:10035800755AF7E5552402F55502045E1212C0EFEE
:100368002401FD7C00E92DF9EC3AFA120E76F55AD3
:100378001212C2EF2402FF7E00E92F1212B9F55BB8
:10038800E5552403F555E556B403067554070204EC
:100398000D755404D22402040D1212A964F0706D74
:1003A800D2247559F0E55504F555FF75560112121A
:1003B800C0EF7C0029F9EC3AFA120E76FE64F76079
:1003C80020EF6553601B0556E556C39404500D7421
:1003D800582556F8C6EEC6E55504F555EF04FF80D6
:1003E800CD0556E556B4020B755406755AF7C22466
:1003F80002045EE556B4030A755407755BF7C22418
:10040800805475540474FD2556F55680491212A976
:10041800F55CC2AFFF121258EF04F556D2AFE55C97
:10042800C39480400FE55C94F05009E55CC4540F18
:10043800F5548003855654E4F557E557C39556504F
:10044800151212A9FF74592557F8C6EFC6E55504C9
:10045800F555055780E4E5544258E4F55774582596
:1004680057F8E6FFE557255D2400F582E4347EF56C
:1004780083EFF00557E557B404E37404255DF55D93
:1004880012189DE55DC39440400E907FB8E020E1CE
:1004980004A3E55DF0E4F55DE57660030202E6306D
:1004A80024030202E61212E4700A740A65827004D8
:1004B8007422658360030202E61212A964FE6003D7
:1004C8000202E6E55504F5550202E6E55D600B908B
:0B04D8007FB8E020E104A3E55DF02206
:100C9A00201E03020D48201D03020D48E57564015C
:100CAA007003020D48907FC8E030E103020D48A3AB
:100CBA00E0F5387003020D481212D9E4F536E5362C
:100CCA00C3953850741212CC540FF535606B12125A
:100CDA00CCC4540F705AE535901A3493F5396050E4
:100CEA00E535B40F19300848C2AF7B007A0079CED7
:100CFA0074C125361212EF121107D2AF8032E4F511
:100D0A0037E537C39539501AC2AF7B017A21790585
:100D1A00E537253624C11212EF121040D2AF05373B
:100D2A0080DFE53564046008902108E0902106F030
:0F0D3A0074042536F536020CC8E4907FC9F02208
:10198200907FD6E030E712E04401F07F147E00122F
:0A19920017FE907FD6E054FEF0220D
:10190900907FD6E04480F043870100000000002268
:081A5700E4F570D2E9D2AF22E0
:10161A00907FA5E020E6F9C2E9907FA5E04480F03A
:10162A00EF25E0907FA6F0907FA5E030E0F9907F6B
:10163A00A5E04440F0907FA5E020E6F9907FA5E080
:06164A0030E1D6D2E922D6
:10004E00A907907FA5E020E6F9E5707023907FA5C3
:10005E00E04480F0E925E0907FA6F08D6BAF03A918
:10006E0007756C018A6D896EE4F56F757001D32288
:02007E00C3229B
:10168400A907907FA5E020E6F9E5707025907FA575
:10169400E04480F0E925E04401907FA6F08D6BAF33
:1016A40003A907756C018A6D896EE4F56F75700383
:0416B400D322C32258
:03004B0002094B5C
:10094B00C0E0C083C082C085C084C086758600C0ED
:10095B00D075D000C000C001C002C003C006C007E4
:10096B00907FA5E030E206757006020A35907FA5F0
:10097B00E020E10CE57064026006757007020A3531
:10098B00E57024FE605F14603624FE7003020A26B5
:10099B0024FC7003020A3224086003020A35AB6C94
:1009AB00AA6DA96EAF6F056F8F82758300120E8FC4
:1009BB00907FA6F0E56F656B7070757005806B901E
:1009CB007FA6E0AB6CAA6DA96EAE6F8E82758300AD
:1009DB00120ECE757002E56B6401704E907FA5E030
:1009EB004420F08045E56B24FEB56F07907FA5E0B2
:1009FB004420F0E56B14B56F0A907FA5E04440F0FE
:100A0B00757000907FA6E0AB6CAA6DA96EAE6F8E71
:100A1B0082758300120ECE056F800F907FA5E04488
:100A2B0040F075700080037570005391DFD007D0D4
:100A3B0006D003D002D001D000D0D0D086D084D045
:080A4B0085D082D083D0E03297
:0217A700A90790
:1017A900AE0CAF0D8F828E83A3E064037017AD0179
:1017B90019ED7001228F828E83E07C002FFDEC3EB3
:0917C900FEAF0580DF7E007F0009
:0117D20022F4
:1011B900E4FEAC0AAD0B8D828C83A3E06402702D32
:1011C900AB060EEBB50705AF05AE04228D828C8305
:1011D900A3A3E0F569A3E0F56A6269E569626AE5D6
:1011E9006A62692DFBE5693CFCAD0380C97E007F1D
:0111F90000F5
:0111FA0022D2
:1017FE008E5E8F5F907F92E030E30BE55F25E0F524
:10180E005FE55E33F55EE55F155FAE5E7002155EF9
:09181E004E600512191980EE223A
:101919007400F58690FDA57C05A3E582458370F9E1
:01192900229B
:1016B80074102546F582E433F583AB40AA41A9426C
:1016C800020E8FE5512552F582E43550F583E0226C
:1016D8002FF582E433F583020E8FF582E43422F588
:0416E80083E0FF227A
:100BE8001218E7D21D757601121571C22D7576029D
:100BF800AF76121534202D03020C8A907F97E044BB
:100C080080F07FC87E001217FE75C040907F98E084
:100C18004480F0907F97E054F7F07FD07E0712175A
:100C2800FE907F97E04408F0907F94E0440CF07FBA
:100C38008012174B1219197F0412174B7F81121754
:100C48004B7F647E001217FE1215AB7FF9120C92CF
:100C58007D637FF87E0F1218277FA07E0F1217FE84
:100C68001215ABAF761215347F327E001217FE7F55
:100C7800F8120C92907F98E0547FF0907F97E054A0
:100C88007FF012189D120C9A80F8E4FD7E0F12185E
:020C9800272211
:1015710090220B7416F01219CE9022157460F0A30C
:10158100740BF0A3747FF0E4A3F0FFEF900080935D
:10159100FE74192FF582E43422F583EEF00FBF0BB0
:0A15A100EA90222474F7F002146EA1
:10199C008F4D90220B7408F01219CEE54D446290D5
:0A19AC002215F0A374F7F002146E88
:1019CE0090220F74F0F0E4A3F0A37420F0A3744FF0
:0819DE00F0E4A3F0A304F022E1
:10146E00E4F54EE5756402601690220BE0654E6061
:10147E000E740F254E1216E2121850054E80EAE534
:10148E007564016017301E14E490220AF07B017A15
:10149E0022790AA3E0F553E4FF1202C8E490220A6F
:0814AE00F0A3F090220DF022E2
:101534008F341214B612189DE5756402600E7B0197
:101544007A207900902001E0FD12067DE5756401A2
:101554006014301E117B017A217905902106E0FD8B
:0D15640012067D120C9AE576653460C622F1
:1004E3008B408A418942E4F54BC223F54C90000BC3
:1004F300120E8FF543541364126003020659D2237C
:10050300E54330E2120576754B10E54320E503021F
:100513000659D22D02065990000D120E8F75450013
:10052300C4333354C0F54490000E120E8F75F0801F
:10053300A4AEF02545F545EE3544F54490000F1281
:100543000E8F2545F545E43544F544E4F54C7547F0
:100553000BF546AB40AA41A94290000C120E8FFF47
:10056300E546C39F5048AF4674101216D8F5487439
:10057300111216D8F549E54C2548547FF54C254909
:10058300547FF54CE548C454F0FFE549540F2F64FC
:1005930055FFE92405F9E43AFAE5477C0029F9EC2B
:1005A3003AFAEF120EBC05470546054680A512161A
:1005B300B8654C600302065990000C120E8FC313EA
:1005C300F54AE54320E52BC3E544942040030206A6
:1005D30059C2E8438E07E92410F9E43AFAAB01ADB6
:1005E3004AAF45AE44120FDA8F4B538EF8D2E8026E
:1005F3000659754B107F0A120662E4F546E546C3B9
:10060300954A500B1216B8FF12174B054680EE2081
:100613002CFD7F327E001217FE7F0B120662202C08
:10062300FD43C05090220DE0C3954A40F7E4F546E0
:10063300E546C3954A501C740F25461216E2E5465B
:1006430024101216BCFEEF6E6005E4F54B80040522
:100653004680DD53C0EF302305AF4B12199C2212A5
:10066300174BE544FF12174BAF45E54512174BE413
:0A067300FF12174BAF4A12174B227B
:100FDA008E4D8F4E8D4F8A508B51E4F552E552C398
:100FEA00954F5045E54D90234FF0E54EA3F012166C
:100FFA00CB902351F07D031210367F5112161A7DC1
:10100A00021210367A237B527D017F5112194A123D
:10101A0016CBFF902352E06F60037F0022054EE556
:10102A004E7002054D055280B47F10227A237B4F01
:06103A007F51121966222D
:101827008E348F358D367F0812174BE534FF12172C
:101837004BAF35E53512174B7F0112174BAF3612F9
:09184700174B7F327E000217FEF0
:1015AB00E4FD1215D27D4E7FFA7E0F1218277D2097
:1015BB007FFB1215DA1217FE7D731215D27D8C7F0D
:1015CB00F81215DA0217FE7FF87E0F121827227E0B
:0915DB000F1218277F327E002256
:0B00800001090200060303000000005D
:10194A00121684E57024FA600E146006240770F3F8
:0C195A00D322E4F570D322E4F570D32210
:1019660012004EE57024FA600E146006240770F328
:0C197600D322E4F570D322E4F570D322F4
:03000000020026D5
:0C002600787FE4F6D8FD7581D802080D43
:100E7600BB010689828A83E0225002E722BBFE027A
:090E8600E32289828A83E49322AD
:100E8F00BB010CE58229F582E5833AF583E0225018
:100E9F0006E92582F8E622BBFE06E92582F8E22262
:0D0EAF00E58229F582E5833AF583E493227C
:100EBC00BB010689828A83F0225002F722BBFE0115
:020ECC00F3220F
:100ECE00F8BB010DE58229F582E5833AF583E8F05A
:100EDE00225006E92582C8F622BBFE05E92582C806
:020EEE00F222EE
:100EF000EB9FF5F0EA9E42F0E99D42F0E89C45F058
:010F000022CE
:00000001FF
